:020000040800F2
:10000000A0620020310200085F0600085B060008BD
:100010005D060008BB050008850B00080000000015
:10002000000000000000000000000000B107000810
:10003000BD05000800000000470200084902000852
:100040004B0200084B0200084B0200084B0200085C
:100050004B0200084B0200084B0200084B0200084C
:100060004B0200084B0200084B0200084B0200083C
:100070004B0200084B0200084B0200084B0200082C
:100080004B0200084B0200084B0200084B0200081C
:100090004B0200084B0200084B0200084B0200080C
:1000A0004B0200084B0200084B0200084B020008FC
:1000B0004B020008C50800084B0200084B0200086C
:1000C0004B0200084B0200084B0200084B020008DC
:1000D0004B020008B1090008DD0900084B020008C6
:1000E0004B0200084B0200084B0200084B020008BC
:1000F0004B0200084B0200084B0200084B020008AC
:100100004B0200084B0200084B0200084B0200089B
:100110004B0200084B0200084B0200084B0200088B
:100120004B0200084B0200084B0200084B0200087B
:100130004B0200084B0200084B0200084B0200086B
:100140004B0200084B0200084B0200084B0200085B
:100150004B0200084B0200084B0200084B0200084B
:100160004B0200084B0200084B0200084B0200083B
:100170004B0200084B0200084B0200084B0200082B
:100180004B0200084B02000800F002F800F041F8B2
:100190000AA090E8000C82448344AAF10107DA45E2
:1001A00001D100F036F8AFF2090EBAE80F0013F0F3
:1001B000010F18BFFB1A43F001031847401B000052
:1001C000601B0000103A24BF78C878C1FAD85207E3
:1001D00024BF30C830C144BF04680C6070470000C1
:1001E0000023002400250026103A28BF78C1FBD840
:1001F000520728BF30C148BF0B607047782900F014
:100200007780002070471FB501F05EFC1FBD10B560
:1002100010BD00F09BF91146FFF7F5FF01F0F2F970
:1002200000F0B9F903B4FFF7F2FF03BC00F0BEF928
:100230000948804709480047FEE7FEE7FEE7FEE77A
:10024000FEE7FEE7FEE7FEE7FEE7FEE704480549B6
:10025000054A064B7047000069080008890100083C
:10026000A0020020A0620020A0220020A0220020E6
:100270000FB4044910B503AA029800F007F910BCA6
:100280005DF814FB380000202DE9F0410E460446CD
:10029000002020622046E168884730B3252805D039
:1002A000D4E901219047206A401CF2E7E16820462A
:1002B00000278847050018D0A5F14100192802D869
:1002C00020354FF400673246294620462760FFF765
:1002D00095FF40B1012804D0F61D26F00706083628
:1002E000D8E7361DD6E72846DAE7206ABDE8F08170
:1002F00070B504460D4621461068AFF30080218892
:10030000090502D50F4A7A4402E00E4A7A440E32B9
:10031000002104F1240305E000F00F060009965DBA
:100320005E54491C0028F7D120780023000704D52B
:10033000702D02D009B1022311322046BDE8704071
:1003400000F04AB8C8190000032A40F2308010F0CB
:10035000030C00F0158011F8013BBCF1020F624460
:1003600098BF11F801CB00F8013B38BF11F8013BF1
:10037000A2F1040298BF00F801CB38BF00F8013B9E
:1003800011F0030300F09480083AC0F0088051F89F
:10039000043B083A51F804CBA0E80810F5E7121D19
:1003A0005CBF51F8043B40F8043BAFF30080D20738
:1003B00024BF11F8013B11F801CB48BF11F8012B04
:1003C00024BF00F8013B00F801CB48BF00F8012B27
:1003D00070477047704770472DE9F0470D469946C2
:1003E0009246044600F124080168880604D5E069B5
:1003F00021F01001216000E00120A84201DD471B2F
:1004000000E00027A1697A1902EB0900081AA0612F
:100410002078C00602D42046AFF30080002608E012
:10042000D4E901211AF806009047206A401C761C86
:1004300020624E45F4DB2078C0060AD52046AFF393
:10044000008006E0D4E9012130209047206A401C5A
:100450002062381EA7F10107F4DC07E0D4E901218E
:1004600018F805009047206A401C2062281EA5F15C
:100470000105F3DC2046AFF300802078000602D5AA
:100480000220BDE8F0870120FBE70000074B70B5B4
:100490000D467B4400F043F80446284600F052F82D
:1004A00010B14FF0FF3070BD204670BDD710000076
:1004B00010B5203AC0F00B80B1E81850203AA0E8FF
:1004C0001850B1E81850A0E81850BFF4F5AF5FEA33
:1004D000027C24BFB1E81850A0E8185044BF18C9E6
:1004E00018C0BDE810405FEA827C24BF51F8043B8D
:1004F00040F8043B08BF7047D20728BF31F8023BE1
:1005000048BF11F8012B28BF20F8023B48BF00F874
:10051000012B704701694A1C02610878704700B5D9
:100520008FB0CDE901310021059105497944CDE92C
:10053000031011466846FFF7A7FE0FB000BD00008C
:10054000E5FFFFFF007B00F080007047754600F07C
:1005500029F8AE4605006946534620F00700854657
:1005600018B020B5FFF772FEBDE820404FF000063E
:100570004FF000074FF000084FF0000B21F007018B
:10058000AC46ACE8C009ACE8C009ACE8C009ACE8CE
:10059000C0098D4670470446AFF300802046FFF740
:1005A00041FE000000487047400200200149182029
:1005B000ABBEFEE7260002007047FEE77047F0B5CD
:1005C000002201274FF0030C0B6807FA02F52B40BD
:1005D000AB422CD1066853000CFA03F4A643066024
:1005E0000E79D0F800E09E4046EA0E0606600E79CD
:1005F000012E01D0022E12D18668A64386604E7964
:10060000D0F808E09E4046EA0E0686604668AE4393
:10061000466045688E799640B6B235434560C568F8
:10062000A543C560CC799C40C3681C43C460521C80
:10063000102AC9D3F0BD4B07DB0E9A40C90810B58C
:1006400000EB8100016A0F249C40A1430162016A12
:100650001143016210BD01837047FEE7FEE770475A
:1006600030B50F23C27801780125FAB1144A126817
:1006700001F1E02102F4E062C2F5E062C2F3072278
:10068000C2F10404D3404278A24084781C40144351
:10069000220181F80024007800F01F018D404009FC
:1006A000800000F1E020C0F8005130BD01F01F00D3
:1006B00085404809800000F1E020C0F8805130BD3D
:1006C0000CED00E002490843024908607047000051
:1006D0000000FA050CED00E0044A0029116801D081
:1006E000014300E081431160704700003038024050
:1006F000044A0029116801D0014300E081431160E0
:100700007047000040380240044A0029116801D0B7
:10071000014300E08143116070470000443802400B
:1007200070B5204B1968204C11F00C0104D06610F4
:10073000042903D0082903D004601BE0066019E0F7
:10074000184A121F1168C1F38055116801F03F016A
:1007500015B1B6FBF1F101E0B4FBF1F114681268D8
:10076000C4F388146143C2F30142521C5200B1FB2E
:10077000F2F1016019680F2202EA11110B4A545C70
:100780000168E14041601C68072505EA9424145D76
:1007900021FA04F484601B6805EA5333D25CD1402B
:1007A000C16070BD083802400024F4002800002019
:1007B000704700000CB5002227490092019208689A
:1007C00040F4803008604FF4A043086800F4003023
:1007D00001900098401C0090019810B90098984230
:1007E000F3D10868800334D5012001901A484030C5
:1007F000026842F0805202601848026842F44042A7
:1008000002601548083002680260026842F4004243
:100810000260026842F4A0520260031F104A1A608C
:100820000A6842F080720A600A689201FCD50D499C
:1008300040F205720A60016821F00301016001685D
:1008400041F0020101600168C1F381010229FAD17E
:100850000CBD01920CBD0000003802400070004049
:1008600008544007003C0240124810B5016841F4AA
:10087000700101601048016841F0010101600E4AF9
:1008800000210832116002680C4B1A400260031DFF
:100890000B4A1A60026822F48022026006480C307B
:1008A0000160FFF787FF03494FF00060803908605F
:1008B00010BD000088ED00E000380240FFFFF6FEAA
:1008C0001030002410B5084C0121204600F01BF820
:1008D000012807D100F0D0FE2046BDE810400121DC
:1008E00000F004B810BD000000040040C9430182BC
:1008F00070470029018802D041F0010101E021F098
:1009000001010180704702460020138A92890B4240
:1009100002EA010202D0002A00D001207047002A1A
:10092000828901D00A4300E08A4382817047416294
:100930007047000030B50288164C174DA0420DD00C
:10094000A8420BD0B0F1804F08D0144B984205D08C
:10095000134B984202D0134B984203D122F07003FC
:100960004A881A43104B984206D0104B984203D045
:1009700022F440730A891A4302804A68C2620A88D4
:100980000285A04201D0A84201D1897A01860121C5
:10099000818230BD0000014000040140000400409D
:1009A00000080040000C004000100040001400400F
:1009B00070B5094C40F225552946204600F04CF808
:1009C000012808D1204600F0D5F829462046BDE888
:1009D000704000F02AB870BD0010014070B5104C96
:1009E00040F225552946204600F036F8012805D169
:1009F00000F048FE2946204600F017F840F227751F
:100A00002946204600F028F8012807D100F040FED2
:100A100029462046BDE8704000F007B870BD0000D0
:100A200000440040C943018070470A0A01219140F7
:100A3000C943018070470029818902D041F40051E7
:100A400001E021F4005181817047024600201288A4
:100A50000A4200D00120704770B501F01F05012641
:100A60000024C1F3421306FA05F2012B0FD0022B2A
:100A70000FD0838A4FEA11210088134206FA01F64B
:100A800000EA060001D000B10124204670BD838930
:100A9000F0E7038AEEE710B5C1F3421301F01F043B
:100AA0000121A140012B07D0022B07D01430002ACE
:100AB000026805D00A4304E00C30F8E71030F6E78E
:100AC0008A43026010BD00007FB50446008A0D46CF
:100AD000C98820F4405001432182A08941F20C6171
:100AE0008843A9882A8911436A8902431143A18155
:100AF000A08A20F44071A8890843A0826846FFF7C5
:100B00000FFE1A48844202D01948844201D103984A
:100B100000E00298A189090400EBC00101EB00107C
:100B2000296801D5490000E08900B0FBF1F064229A
:100B3000B0FBF2F109010B096FF018056B4300EBF4
:100B40008300A3891D044FF0320306D503EBC000D8
:100B5000B0FBF2F000F0070005E003EB0010B0FB83
:100B6000F2F000F00F00084320817FBD001001402B
:100B7000001401408088C0F308007047C1F30801E9
:100B800081807047FEE700000D494FF4FA52096872
:100B9000B1FBF2F24FF0E02142434A6100238B6146
:100BA000086940F0010008610869C20701D0C0036C
:100BB000FAD5086920F0010008618B6170470000D8
:100BC0001400002070B5064D00242878012802D0BA
:100BD0000624204670BD2869804700202870F8E769
:100BE0003C00002070B50C460988002605292FD14D
:100BF000417840F2CF750A0281781143C278491CCE
:100C00001302027989B21A43531EAB4220D2002349
:100C10002380012500F8015B23885B1C2380530798
:100C200003D005EBD203DDB201E0C2F3C70500F843
:100C3000015B23885B1C2380002300F0DDFA18B1E0
:100C400000F00EFD064604E020882844208000E0E5
:100C50000326304670BD70B50C460988002605296C
:100C60002FD1417840F2CF750A0281781143C278C2
:100C7000491C1302027989B21A43531EAB4220D297
:100C800000232380022300F8013B23885B1C238080
:100C9000530704D0012303EBD203DDB201E0C2F31A
:100CA000C70500F8015B23885B1C238000F01EFB56
:100CB00018B100F0D5FC064604E0208828442080C6
:100CC00000E00326304670BD70B50C46098800264A
:100CD000052925D1417805790A0281781143491CFB
:100CE0006A1E89B27C2A1BD800222280032200F8C7
:100CF000012B22880023521C22806A0000F8012B5D
:100D00002288521C22802A4600F040FB18B100F0D5
:100D1000A7FC064605E0208800EB4500208000E0A7
:100D20000326304670BD70B50C460988002605299B
:100D300027D141788278057942EA0122521C91B28A
:100D4000C27845EA02256A1E7C2A1AD20022228035
:100D5000042200F8012B2288521C22806A0000F82D
:100D6000012B2288521C22802A4600F0CBFB18B1AE
:100D700000F076FC064605E0208800EB4500208068
:100D800000E00326304670BD2DE9F0410446088896
:100D900000270D460A2842D3607826790102A07800
:100DA000227A0843401C1FFA80F8E07846EA0026C1
:100DB0006079731E0102A0790843401C81B2E0797A
:100DC0007C2B42EA0022607A28D83AB3792A25D8C7
:100DD000B0EB420F22D1012304F10A0000F0D6FA51
:100DE00098B900212980172121702988601C491C8D
:100DF0002980710000F8011B29880023491C2980E3
:100E00003246414600F0C2FA18B100F029FC07460C
:100E100005E0288800EB4600288000E003273846DC
:100E2000BDE8F08170B5064C0D4606492288401C8D
:100E3000FFF78AFA2088401C2880002070BD00003F
:100E4000F40000202002002038B50988002405297C
:100E50000BD141780A0281781143491C027989B289
:100E60001AB9C278FF2A03D012B10324204638BD34
:100E700000228DF80120C078FF280CD08DF80020CA
:100E800001231A46684600F0B7F90028EED000F0BA
:100E9000E7FB0446EAE701208DF80000F0E710B513
:100EA00009880024052902D00324204610BD41787A
:100EB00001230A028178C01C1143491C89B21A46D9
:100EC00000F064FA0028F0D000F0CAFB0446ECE71A
:100ED0002DE9F0410D4609880024052926D94178DD
:100EE0008278437942EA0122521C96B2C178027993
:100EF00042EA0122510704D0012101EBD201C9B21B
:100F000001E0C2F3C701571EB7F5F66F0ED2994242
:100F10000CD101233146801D00F06EF918B100F0AC
:100F20009FFB044603E00520288000E003242046C0
:100F3000BDE8F08170B50D460988002406291DD34F
:100F400041780A0281781143C278491C1302027960
:100F500089B21A434379561E772E0FD85606360E9D
:100F60009E420BD10123801D00F010FA18B100F051
:100F700077FB044603E00520288000E00324204698
:100F800070BD00002DE9F0411C46069B1746064641
:100F900029B1F72903D8134D084629710EB102244F
:100FA0001BE011492961114969611149E960114941
:100FB000A9610021E961104929621049696210495B
:100FC000A9622246394600F077F8040005D100F006
:100FD000C7FC28B16E71012028702046BDE8F08161
:100FE0000324FAE73C000020B9110008DD110008D5
:100FF0005111000801110008D1190008591A000800
:10100000311A000838B52B4C207808B1062038BDBD
:10101000684600F097FC012849D19DF80000E8B32C
:10102000012802D0022842D10FE0224AA369921D72
:10103000911CC81F984788BB60782179884200D0EE
:1010400060BB022000F094FC31E0A0680121194B44
:101050000578A570E17000212C3313F8312062B1BE
:10106000AA4207D103EBC1014A681249891D904782
:10107000E07002E0491C1029EFDB607870B1E27883
:1010800082B10020E080A07840F08001A06801706B
:10109000E188491C89B2E180425400E007E0E08821
:1010A000401CE080D4E90213E288207998470020B0
:1010B00038BD00003C00002070B5002415460E46E7
:1010C000012080F3108808222946304600F068FC91
:1010D00001280DD1B5F5964F01D9232003E007492A
:1010E0006800B1FBF0F080B200F06CFC012800D089
:1010F0000324002080F31088204670BDA07F1700D5
:101100002DE9F0410646002415468846012080F36B
:1011100010880D4FB888042804D3B9880B4800F014
:1011200065FB30B10524002080F310882046BDE81F
:10113000F081064800783070B888C01E28800348C7
:10114000401CC8F80000EEE7E80000202001002065
:1011500070B503460025012080F31088144C607898
:10116000012805D00525002080F31088284670BD91
:10117000491E0126A160084666800B7061881144F3
:101180006180618800F032FB01466088094A1318CB
:10119000401C608019706088090A0244401C60800D
:1011A000117026700121002000F08CFBDBE70000AD
:1011B000E80000202001002010B5012080F31088F5
:1011C0000548002444702146012000F07BFB00F01C
:1011D000A1FB84F3108810BDE800002010B50120A9
:1011E00080F310880021084600F06CFB00F084FBBF
:1011F000002080F3108810BD2DE9F0470746481EF7
:1012000085B28946501EC11700EB5170012101EBD8
:10121000E00086B29A4614464FF0000823A0FFF77C
:1012200027F8494625A0FFF723F8214627A0FFF716
:101230001FF8514629A0FFF71BF828190A2802D9E0
:101240000120BDE8F087284ABAF1010F10D028E04C
:1012500017F8011B082005E001F0010353556D1C30
:10126000ADB24908641EA4B202D3401EC0B2F3D28C
:10127000761EB6B2ECD217E00020082109E0535DDB
:1012800083406D1C43EA0803401C03F0FF08ADB225
:10129000C0B2641EA4B202D3491EC9B2EFD207F88D
:1012A000018B761EB6B2E7D20020CAE7654D4252E6
:1012B0006567436F696C7343420D0A00757341643F
:1012C00064726573733D25780D0A000075734E4393
:1012D0006F696C733D25780D0A000000654D6F64E1
:1012E000653D25780D0A00000C0100202DE9F0472E
:1012F0000746491E1FFA81F9501EC11700EB5171B4
:101300004FF0010808EBE10086B21446002519A051
:10131000FEF7AEFF09EB0400DFF86CC00A2816D90F
:101320000120BDE8F0870020082108E01CF8092012
:101330001AB108FA00F22A43D5B2401CC0B2641EAA
:10134000A4B202D3491EC9B2F0D207F8015B3046FD
:10135000761EB6B2E7D21CF8001041B100210CF89D
:101360000010401C80B20A28F5D30020D9E70121E3
:10137000F5E70000654D4252656744697363726525
:10138000746543420D0A0000160100202DE9F0416A
:101390000446481E85B2984616460F463DA0FEF705
:1013A00067FFA8190A2802D90120BDE8F081394653
:1013B0003DA0FEF75DFF31463FA0FEF759FF2178C3
:1013C00041A0FEF755FF617845A0FEF751FF4A485E
:1013D000B8F1010F59D167784849494A01233FB90B
:1013E000C1F8A432C1F8A832C2F8B432C2F8B83297
:1013F00094F801C00027BCF1010F07D1C1F8A47215
:10140000C1F8A832C2F8B432C2F8B83294F801C0B8
:10141000BCF1020F07D1C1F8A472C1F8A872C2F8DA
:10142000B432C2F8B83294F801C0BCF1030F07D14E
:10143000C1F8A472C1F8A872C2F8B472C2F8B83286
:101440006378042B11D1C1F8A472C1F8A872C2F854
:10145000B472C2F8B87208E034F8021B49BA20F836
:1014600015106D1C761EADB2B6B2002EF4D10EE092
:1014700030F81510090A04F8011B10F815106D1C3E
:10148000761E04F8011BADB2B6B2002EF0D10020DA
:101490008BE70000654D42526567486F6C64696E6A
:1014A0006743420D0A0000007573416464726573FE
:1014B00073203D25780D0A0075734E5265677320C1
:1014C0003D2025780D0A00007075635265674275EE
:1014D000666665725B305D3D25780D0A0000000090
:1014E0007075635265674275666665725B315D3D16
:1014F00025780D0A00000000000000200080424214
:101500000000424270B50646491E15468CB212A034
:10151000FEF7AEFE601914490A280ED9012070BDED
:1015200031F81400000A06F8010B11F81400641CCD
:101530006D1E06F8010BA4B2ADB2002DF0D1002053
:1015400031F81020521C21F81020401C80B20A28CB
:10155000F6D3002070BD0000654D42526567496EAC
:1015600070757443420D0A00F800002070B5074DF5
:10157000044681B22846FFF701FB80212846FFF789
:1015800064FA0028F9D0204670BD00000010014028
:101590002DE9FC4701213020FFF79EF801248DF84A
:1015A000044000268DF806600327DFF850904FF4C2
:1015B000C0658DF8057000958DF80740694648466E
:1015C000FEF7FDFF8DF804408DF806608DF805707C
:1015D0008DF807400A4C4FF4C048CDF800806946AA
:1015E0002046FEF7ECFF29464846FFF734F841460F
:1015F0002046FFF730F8BDE8FC87000000140240E9
:101600000010024008B5FFF7C3FF4FF44070FFF72A
:1016100059F800F0B9F84FF4E13000F0FDF84FF45C
:101620001654204600F03AF8002100912346022289
:1016300001210020FFF7A6FCFFF7C4FA02A0FEF785
:1016400017FEFFF7DFFCFCE754686973206973201D
:10165000727334383520746573740D0A000000000D
:10166000002804D0012803D0072803D004207047A5
:1016700002207047062070470148006800470000BC
:101680006400002001480068004700005C00002062
:101690000148006800470000600000202DE9F04389
:1016A0008146012187B00846FFF716F8012148045A
:1016B000FFF71EF8DFF8C080072202214046FEF740
:1016C000BAFF072203214046FEF7B5FF02208DF83E
:1016D000040003258DF8055000240C278DF80640E2
:1016E000012600978DF8076069464046FEF767FFC0
:1016F00001214020FEF7F0FF8DF8046030028DF8E4
:10170000055000908DF806408DF8074069461B484B
:10171000FEF755FFADF81040ADF81270184FADF858
:101720000C40CDF80890ADF80E40ADF8144002A979
:101730003846FFF7C9F901213846FFF77CF9402107
:101740003846FFF76FF9012240F225513846FFF77E
:10175000A2F926208DF818008DF819508DF81A502E
:101760008DF81B6006A8FEF77BFF0648C0F8A04274
:1017700007B0BDE8F08300000000024000180240FE
:1017800000440040000043421FB501210220FEF743
:10179000AFFF40F69F70019042F2CF00ADF800001D
:1017A0000020114CADF8020069462046FFF7C2F850
:1017B0001D218DF80C1002218DF80D108DF80E10E2
:1017C00001208DF80F0003A8FEF74AFF00212046F4
:1017D000FFF78FF801212046FFF788F8002201214A
:1017E0002046FFF79CF81FBD0004004070B5094D6E
:1017F000FF231A4605F5807605E010F8014B5440AA
:101800002A5D5A40335D491E89B2F6D242EA03206E
:1018100070BD0000D21A0008F0B50646012187B05D
:101820000846FEF759FF01211020FEF76DFF234DFA
:10183000072209212846FEF7FEFE07220A21284634
:10184000FEF7F9FE02218DF814108DF815104FF4F3
:10185000C060002404908DF8164001278DF81770A1
:1018600004A92846FEF7ABFEADF80440ADF80640EB
:10187000ADF80840ADF80C400C20114CADF80A0052
:10188000009669462046FFF71FF901212046FFF721
:10189000D2F8012240F225512046FFF7FCF825201E
:1018A0008DF8180003208DF819008DF81A008DF8B6
:1018B0001B7006A8FEF7D4FE07B0F0BD0000024082
:1018C0000010014070B50C460A4D40F2255108B198
:1018D000012200E000222846FFF7DDF840F22771E0
:1018E0000CB1012200E000222846BDE87040FFF75D
:1018F000D2B800000044004010B5054C012120463C
:10190000FEF7F4FF2046BDE810400021FEF7F1BFCE
:101910000004004010B50A4C01212046FEF7E6FF06
:10192000012211462046FEF7FAFF00212046FEF76D
:10193000FEFF2046BDE810400121FEF7DABF00009F
:10194000000400400549024600204B78002B04D0DB
:10195000087810700020487001207047F6000020C1
:10196000024900204870012070470000F600002066
:10197000024901224A70087010467047F6000020A4
:1019800070B5064D044640F225512846FFF74DF844
:101990002846FFF7EFF82070012070BD004400409A
:1019A0000120704710B5064C01462046FFF7E6F8C7
:1019B00080212046FFF749F80028F9D0012010BD0A
:1019C0000044004010B5FFF7DFFE012010BD00000D
:1019D00038B500246846FFF7D3FF1348417831B18A
:1019E000124A012907D0022910D0032901D1FFF79B
:1019F00091FF204638BD002181809DF8003081880C
:101A00000A44491C8180137002210BE08188FF2960
:101A100007D89DF8003081880A44491C81801370E2
:101A2000E5E703214170E2E7E80000202001002003
:101A300070B5084D0024687810B1022803D1012048
:101A4000FFF796FF0446FFF757FF01206870204616
:101A500070BD0000E80000202DE9F041184C00277F
:101A6000207810B1012828D104E000210120FFF7DF
:101A700029FF22E060880025B0B1124E0120C6F88F
:101A8000A00206F52876FFF77FF8A0680078FFF738
:101A900089FF0120FFF778F83560A068401CA0603E
:101AA0006088401E608008E00320FFF761FF074662
:101AB00000210120FFF706FF25703846BDE8F081C0
:101AC000E8000020000043424FF04070E1EE100AB1
:101AD000704700C1814001C0804101C0804100C108
:101AE000814001C0804100C1814000C1814001C0EE
:101AF000804101C0804100C1814000C1814001C0DE
:101B0000804100C1814001C0804101C0804100C1CD
:101B1000814001C0804100C1814000C1814001C0BD
:101B2000804100C1814001C0804101C0804100C1AD
:101B3000814000C1814001C0804101C0804100C19D
:101B4000814001C0804100C1814000C1814001C08D
:101B5000804101C0804100C1814000C1814001C07D
:101B6000804100C1814001C0804101C0804100C16D
:101B7000814000C1814001C0804101C0804100C15D
:101B8000814001C0804100C1814000C1814001C04D
:101B9000804100C1814001C0804101C0804100C13D
:101BA000814001C0804100C1814000C1814001C02D
:101BB000804101C0804100C1814000C1814001C01D
:101BC000804100C1814001C0804101C0804100C10D
:101BD000814000C0C101C30302C2C60607C705C5D4
:101BE000C404CC0C0DCD0FCFCE0E0ACACB0BC90945
:101BF00008C8D81819D91BDBDA1A1EDEDF1FDD1D55
:101C00001CDC14D4D515D71716D6D21213D311D184
:101C1000D010F03031F133F3F23236F6F737F535D4
:101C200034F43CFCFD3DFF3F3EFEFA3A3BFB39F904
:101C3000F83828E8E929EB2B2AEAEE2E2FEF2DEDD4
:101C4000EC2CE42425E527E7E62622E2E323E12144
:101C500020E0A06061A163A3A26266A6A767A56554
:101C600064A46CACAD6DAF6F6EAEAA6A6BAB69A9C4
:101C7000A86878B8B979BB7B7ABABE7E7FBF7DBDD4
:101C8000BC7CB47475B577B7B67672B2B373B17104
:101C900070B05090915193535292965657975595D4
:101CA00094549C5C5D9D5F9F9E5E5A9A9B5B995984
:101CB0005898884849894B8B8A4A4E8E8F4F8D4D54
:101CC0004C8C4484854587474686824243834181C4
:101CD000804030313233343536373839414243442D
:101CE0004546403058003031323334353637383994
:101CF0006162636465664030780000001C1D000866
:101D000000000020F8000000C4010008141E0008B4
:101D1000F8000020A8610000E001000801000C00AC
:101D20000D000400050006000700080009000A0075
:101D3000007A030A00000000000000000102030412
:101D40000607080900000000010203040102030461
:101D50000607080900000000020000000000000063
:101D60000000000000000000000000000000000073
:101D70000000000000000000000000000000000063
:101D80000000000011000000250E00080400000003
:101D9000270D000803000000C90C00081000000017
:101DA000350F0008060000009F0E00081700000015
:101DB000890D000801000000E50B00080500000087
:101DC000490E00080F000000D10E000802000000BC
:101DD000570C000800000000000000000000000098
:101DE00000000000000000000000000000000000F3
:101DF00000000000000000000000000000000000E3
:101E000000000000000000000000000000000000D2
:041E100000000000CE
:040000050800018965
:00000001FF
